{
  "contractName": "voting",
  "abi": [
    {
      "constant": true,
      "inputs": [],
      "name": "owner",
      "outputs": [
        {
          "name": "",
          "type": "address"
        }
      ],
      "payable": false,
      "stateMutability": "view",
      "type": "function"
    },
    {
      "constant": false,
      "inputs": [
        {
          "name": "newOwner",
          "type": "address"
        }
      ],
      "name": "transferOwnership",
      "outputs": [],
      "payable": false,
      "stateMutability": "nonpayable",
      "type": "function"
    },
    {
      "anonymous": false,
      "inputs": [
        {
          "indexed": false,
          "name": "_name",
          "type": "string"
        }
      ],
      "name": "NewCandidateAdded",
      "type": "event"
    },
    {
      "anonymous": false,
      "inputs": [
        {
          "indexed": false,
          "name": "_name",
          "type": "string"
        }
      ],
      "name": "VotedCandidate",
      "type": "event"
    },
    {
      "anonymous": false,
      "inputs": [
        {
          "indexed": false,
          "name": "_name",
          "type": "string"
        }
      ],
      "name": "DeletedCandidate",
      "type": "event"
    },
    {
      "constant": false,
      "inputs": [
        {
          "name": "_name",
          "type": "string"
        }
      ],
      "name": "addNewCandidate",
      "outputs": [],
      "payable": false,
      "stateMutability": "nonpayable",
      "type": "function"
    },
    {
      "constant": false,
      "inputs": [
        {
          "name": "_name",
          "type": "string"
        }
      ],
      "name": "voteForCandidate",
      "outputs": [],
      "payable": false,
      "stateMutability": "nonpayable",
      "type": "function"
    },
    {
      "constant": false,
      "inputs": [
        {
          "name": "_name",
          "type": "string"
        }
      ],
      "name": "deleteCandidate",
      "outputs": [],
      "payable": false,
      "stateMutability": "nonpayable",
      "type": "function"
    },
    {
      "constant": true,
      "inputs": [
        {
          "name": "_name",
          "type": "string"
        }
      ],
      "name": "getCandidateVotes",
      "outputs": [
        {
          "name": "",
          "type": "int256"
        }
      ],
      "payable": false,
      "stateMutability": "view",
      "type": "function"
    }
  ],
  "bytecode": "0x60806040526000600255336000806101000a81548173ffffffffffffffffffffffffffffffffffffffff021916908373ffffffffffffffffffffffffffffffffffffffff160217905550610d47806100586000396000f300608060405260043610610078576000357c0100000000000000000000000000000000000000000000000000000000900463ffffffff1680632d307d601461007d57806388feb516146100e65780638da5cb5b1461014f578063e89927ef146101a6578063e962414f1461020f578063f2fde38b1461025e575b600080fd5b34801561008957600080fd5b506100e4600480360381019080803590602001908201803590602001908080601f01602080910402602001604051908101604052809392919081815260200183838082843782019150505050505091929192905050506102a1565b005b3480156100f257600080fd5b5061014d600480360381019080803590602001908201803590602001908080601f01602080910402602001604051908101604052809392919081815260200183838082843782019150505050505091929192905050506102ad565b005b34801561015b57600080fd5b506101646102b9565b604051808273ffffffffffffffffffffffffffffffffffffffff1673ffffffffffffffffffffffffffffffffffffffff16815260200191505060405180910390f35b3480156101b257600080fd5b5061020d600480360381019080803590602001908201803590602001908080601f01602080910402602001604051908101604052809392919081815260200183838082843782019150505050505091929192905050506102de565b005b34801561021b57600080fd5b506102486004803603810190808035906020019082018035906020019190919293919293905050506102ea565b6040518082815260200191505060405180910390f35b34801561026a57600080fd5b5061029f600480360381019080803573ffffffffffffffffffffffffffffffffffffffff1690602001909291905050506104b4565b005b6102aa81610587565b50565b6102b68161074c565b50565b6000809054906101000a900473ffffffffffffffffffffffffffffffffffffffff1681565b6102e7816109a8565b50565b600082828080601f0160208091040260200160405190810160405280939291908181526020018383808284378201915050505050507fffffffffffffffffffffffffffffffffffffffffffffffffffffffffffffffff6001826040518082805190602001908083835b6020831015156103785780518252602082019150602081019050602083039250610353565b6001836020036101000a0380198251168184511680821785525050505050509050019150509081526020016040518091039020541480610423575060006001826040518082805190602001908083835b6020831015156103ed57805182526020820191506020810190506020830392506103c8565b6001836020036101000a038019825116818451168082178552505050505050905001915050908152602001604051809103902054135b151561042e57600080fd5b7fffffffffffffffffffffffffffffffffffffffffffffffffffffffffffffffff6001858560405180838380828437820191505092505050908152602001604051809103902054141561048457600091506104ad565b600184846040518083838082843782019150509250505090815260200160405180910390205491505b5092915050565b6000809054906101000a900473ffffffffffffffffffffffffffffffffffffffff1673ffffffffffffffffffffffffffffffffffffffff163373ffffffffffffffffffffffffffffffffffffffff161415151561050d57fe5b600073ffffffffffffffffffffffffffffffffffffffff168173ffffffffffffffffffffffffffffffffffffffff1614151561058457806000806101000a81548173ffffffffffffffffffffffffffffffffffffffff021916908373ffffffffffffffffffffffffffffffffffffffff1602179055505b50565b60006001826040518082805190602001908083835b6020831015156105c1578051825260208201915060208101905060208303925061059c565b6001836020036101000a03801982511681845116808217855250505050505090500191505090815260200160405180910390205414151561060157600080fd5b7fffffffffffffffffffffffffffffffffffffffffffffffffffffffffffffffff6001826040518082805190602001908083835b60208310151561065a5780518252602082019150602081019050602083039250610635565b6001836020036101000a0380198251168184511680821785525050505050509050019150509081526020016040518091039020819055506106a76001600254610ce690919063ffffffff16565b6002819055507f74d7e40cfc0bf78c69cec7299d9516d4b4dc02a63035242c2563b28744425c1f816040518080602001828103825283818151815260200191508051906020019080838360005b8381101561070f5780820151818401526020810190506106f4565b50505050905090810190601f16801561073c5780820380516001836020036101000a031916815260200191505b509250505060405180910390a150565b807fffffffffffffffffffffffffffffffffffffffffffffffffffffffffffffffff6001826040518082805190602001908083835b6020831015156107a65780518252602082019150602081019050602083039250610781565b6001836020036101000a0380198251168184511680821785525050505050509050019150509081526020016040518091039020541480610851575060006001826040518082805190602001908083835b60208310151561081b57805182526020820191506020810190506020830392506107f6565b6001836020036101000a038019825116818451168082178552505050505050905001915050908152602001604051809103902054135b151561085c57600080fd5b7ffffffffffffffffffffffffffffffffffffffffffffffffffffffffffffffffe6001836040518082805190602001908083835b6020831015156108b55780518252602082019150602081019050602083039250610890565b6001836020036101000a0380198251168184511680821785525050505050509050019150509081526020016040518091039020819055506109026001600254610d0290919063ffffffff16565b6002819055507fc3f4ecc5f45eebf2c3be54008d67f9699336a4dcb86ec5eb2e5f24ca138dca40826040518080602001828103825283818151815260200191508051906020019080838360005b8381101561096a57808201518184015260208101905061094f565b50505050905090810190601f1680156109975780820380516001836020036101000a031916815260200191505b509250505060405180910390a15050565b807fffffffffffffffffffffffffffffffffffffffffffffffffffffffffffffffff6001826040518082805190602001908083835b602083101515610a0257805182526020820191506020810190506020830392506109dd565b6001836020036101000a0380198251168184511680821785525050505050509050019150509081526020016040518091039020541480610aad575060006001826040518082805190602001908083835b602083101515610a775780518252602082019150602081019050602083039250610a52565b6001836020036101000a038019825116818451168082178552505050505050905001915050908152602001604051809103902054135b1515610ab857600080fd5b7fffffffffffffffffffffffffffffffffffffffffffffffffffffffffffffffff6001836040518082805190602001908083835b602083101515610b115780518252602082019150602081019050602083039250610aec565b6001836020036101000a0380198251168184511680821785525050505050509050019150509081526020016040518091039020541415610bca5760026001836040518082805190602001908083835b602083101515610b855780518252602082019150602081019050602083039250610b60565b6001836020036101000a038019825116818451168082178552505050505050905001915050908152602001604051809103902060008282540192505081905550610c46565b6001826040518082805190602001908083835b602083101515610c025780518252602082019150602081019050602083039250610bdd565b6001836020036101000a0380198251168184511680821785525050505050509050019150509081526020016040518091039020600081548092919060010191905055505b7fba1ffeceef48aba27ae5f7a3a1510a0338e8efa1ee1c1762880ae0ae763a13ca826040518080602001828103825283818151815260200191508051906020019080838360005b83811015610ca8578082015181840152602081019050610c8d565b50505050905090810190601f168015610cd55780820380516001836020036101000a031916815260200191505b509250505060405180910390a15050565b60008183019050828110151515610cf957fe5b80905092915050565b6000828211151515610d1057fe5b8183039050929150505600a165627a7a7230582033f03bc60718ed8250bf2c1b8133677a740cfbcb310f5e2036ad938dc98e1ba40029",
  "source": "pragma solidity ^0.4.23;\n\nimport \"./safemath.sol\";\nimport \"./ownable.sol\";\n\n// TODO maybe add modifier so that a candidate cannot vote himself\n// TODO safemath for uint and int\n\n/// @title Simple voting dapp\n/// @author spirosbax\ncontract voting is Ownable {\n    using SafeMath for uint;\n\n    /* this is where we store our candidates and match the with ids\n    it is public so everyone can see every candidates votes,\n    we get automatic get methods, eg. candidateToVotes(2) will return the Candidate with id = 2 */\n    mapping(string => int256) private candidateToVotes;\n\n    // store how many Candidates exist, also used for adding new ones!\n    uint private candidateCount = 0;\n\n    event NewCandidateAdded(string _name);\n    event VotedCandidate(string _name);\n    event DeletedCandidate(string _name);\n\n    modifier candidateExists(string _name) {\n        require((candidateToVotes[_name] == -1) || (candidateToVotes[_name] > 0)); // check if candidate exists\n        _;\n    }\n\n    /// add new Candidate\n    /// @param _name the name of the new Candidate\n    /// @dev anyone can add a new Candidate\n    function addNewCandidate(string _name) {\n        _addNewCandidate(_name);\n    }\n\n    /// internal function for adding a candidate\n    /// @param _name the name of the Candidate to be added\n    /// @dev fires an NewCandidateAdded event\n    function _addNewCandidate(string _name) internal {\n        require(candidateToVotes[_name] == 0); // check that candidate has not already been added\n        candidateToVotes[_name] = -1;\n        candidateCount = candidateCount.add(1);\n        emit NewCandidateAdded(_name);\n    }\n\n    /// vote for a Candidate, anyone can vote for a Candidate\n    /// @param _name the id of the Candidate to be voted\n    /// @dev throws event VotedCandidate\n\n    // TODO add a way for the callee to pay so the data can be written to the blockchain\n    function voteForCandidate(string _name) {\n        _voteForCandidate(_name);\n    }\n\n    function _voteForCandidate(string _name) internal candidateExists(_name) {\n        if (candidateToVotes[_name] == -1) {\n            candidateToVotes[_name]+=2;\n        } else {\n            candidateToVotes[_name]++;\n        }\n        emit VotedCandidate(_name);\n    }\n\n\n    /// deletes a candidate, only owner can delete candidates\n    /// @param _name the id of the Candidate to be deleted\n    /// @dev throws event DeletedCandidate\n    function deleteCandidate(string _name) {\n        _deleteCandidate(_name);\n    }\n\n    function _deleteCandidate(string _name) internal candidateExists(_name) {\n        candidateToVotes[_name] = -2;\n        candidateCount = candidateCount.sub(1);\n        emit DeletedCandidate(_name);\n    }\n\n    /// returns the votes of candidate with id _name\n    /// @param _name the id of the candidate\n    function getCandidateVotes(string _name) view external candidateExists(_name) returns (int){\n        if (candidateToVotes[_name] == -1) {\n            return 0;\n        }\n        return candidateToVotes[_name];\n    }\n}\n",
  "sourcePath": "/home/spiros/workspace/Ethereum/voting/contracts/voting.sol",
  "compiler": {
    "name": "solc",
    "version": "0.4.24+commit.e67f0147.Emscripten.clang"
  },
  "schemaVersion": "2.0.1",
  "updatedAt": "2018-07-24T16:12:45.323Z"
}